{
  "contractName": "FileManager",
  "abi": [
    {
      "inputs": [
        {
          "internalType": "string[]",
          "name": "_fileInfo",
          "type": "string[]"
        },
        {
          "internalType": "string",
          "name": "_cid",
          "type": "string"
        }
      ],
      "name": "addFile",
      "outputs": [],
      "stateMutability": "nonpayable",
      "type": "function"
    },
    {
      "inputs": [
        {
          "internalType": "address",
          "name": "_account",
          "type": "address"
        }
      ],
      "name": "getFiles",
      "outputs": [
        {
          "components": [
            {
              "internalType": "string",
              "name": "fileName",
              "type": "string"
            },
            {
              "internalType": "string",
              "name": "fileType",
              "type": "string"
            },
            {
              "internalType": "string",
              "name": "cid",
              "type": "string"
            }
          ],
          "internalType": "struct FileManager.File[]",
          "name": "",
          "type": "tuple[]"
        }
      ],
      "stateMutability": "view",
      "type": "function",
      "constant": true
    }
  ],
  "bytecode": "0x608060405234801561001057600080fd5b506109fd806100206000396000f3fe608060405234801561001057600080fd5b50600436106100365760003560e01c8063433bf37b1461003b578063f51592dd1461006b575b600080fd5b610055600480360381019061005091906105e2565b610087565b6040516100629190610797565b60405180910390f35b6100856004803603810190610080919061060b565b6102da565b005b60606000808373ffffffffffffffffffffffffffffffffffffffff1673ffffffffffffffffffffffffffffffffffffffff168152602001908152602001600020805480602002602001604051908101604052809291908181526020016000905b828210156102cf578382906000526020600020906003020160405180606001604052908160008201805461011a9061090f565b80601f01602080910402602001604051908101604052809291908181526020018280546101469061090f565b80156101935780601f1061016857610100808354040283529160200191610193565b820191906000526020600020905b81548152906001019060200180831161017657829003601f168201915b505050505081526020016001820180546101ac9061090f565b80601f01602080910402602001604051908101604052809291908181526020018280546101d89061090f565b80156102255780601f106101fa57610100808354040283529160200191610225565b820191906000526020600020905b81548152906001019060200180831161020857829003601f168201915b5050505050815260200160028201805461023e9061090f565b80601f016020809104026020016040519081016040528092919081815260200182805461026a9061090f565b80156102b75780601f1061028c576101008083540402835291602001916102b7565b820191906000526020600020905b81548152906001019060200180831161029a57829003601f168201915b505050505081525050815260200190600101906100e7565b505050509050919050565b6000803373ffffffffffffffffffffffffffffffffffffffff1673ffffffffffffffffffffffffffffffffffffffff16815260200190815260200160002060405180606001604052808460008151811061035d577f4e487b7100000000000000000000000000000000000000000000000000000000600052603260045260246000fd5b60200260200101518152602001846001815181106103a4577f4e487b7100000000000000000000000000000000000000000000000000000000600052603260045260246000fd5b6020026020010151815260200183815250908060018154018082558091505060019003906000526020600020906003020160009091909190915060008201518160000190805190602001906103fa92919061043b565b50602082015181600101908051906020019061041792919061043b565b50604082015181600201908051906020019061043492919061043b565b5050505050565b8280546104479061090f565b90600052602060002090601f01602090048101928261046957600085556104b0565b82601f1061048257805160ff19168380011785556104b0565b828001600101855582156104b0579182015b828111156104af578251825591602001919060010190610494565b5b5090506104bd91906104c1565b5090565b5b808211156104da5760008160009055506001016104c2565b5090565b60006104f16104ec846107ea565b6107b9565b9050808382526020820190508260005b85811015610531578135850161051788826105b8565b845260208401935060208301925050600181019050610501565b5050509392505050565b600061054e61054984610816565b6107b9565b90508281526020810184848401111561056657600080fd5b6105718482856108cd565b509392505050565b600081359050610588816109b0565b92915050565b600082601f83011261059f57600080fd5b81356105af8482602086016104de565b91505092915050565b600082601f8301126105c957600080fd5b81356105d984826020860161053b565b91505092915050565b6000602082840312156105f457600080fd5b600061060284828501610579565b91505092915050565b6000806040838503121561061e57600080fd5b600083013567ffffffffffffffff81111561063857600080fd5b6106448582860161058e565b925050602083013567ffffffffffffffff81111561066157600080fd5b61066d858286016105b8565b9150509250929050565b60006106838383610739565b905092915050565b600061069682610856565b6106a08185610879565b9350836020820285016106b285610846565b8060005b858110156106ee57848403895281516106cf8582610677565b94506106da8361086c565b925060208a019950506001810190506106b6565b50829750879550505050505092915050565b600061070b82610861565b610715818561088a565b93506107258185602086016108dc565b61072e8161099f565b840191505092915050565b600060608301600083015184820360008601526107568282610700565b915050602083015184820360208601526107708282610700565b9150506040830151848203604086015261078a8282610700565b9150508091505092915050565b600060208201905081810360008301526107b1818461068b565b905092915050565b6000604051905081810181811067ffffffffffffffff821117156107e0576107df610970565b5b8060405250919050565b600067ffffffffffffffff82111561080557610804610970565b5b602082029050602081019050919050565b600067ffffffffffffffff82111561083157610830610970565b5b601f19601f8301169050602081019050919050565b6000819050602082019050919050565b600081519050919050565b600081519050919050565b6000602082019050919050565b600082825260208201905092915050565b600082825260208201905092915050565b60006108a6826108ad565b9050919050565b600073ffffffffffffffffffffffffffffffffffffffff82169050919050565b82818337600083830152505050565b60005b838110156108fa5780820151818401526020810190506108df565b83811115610909576000848401525b50505050565b6000600282049050600182168061092757607f821691505b6020821081141561093b5761093a610941565b5b50919050565b7f4e487b7100000000000000000000000000000000000000000000000000000000600052602260045260246000fd5b7f4e487b7100000000000000000000000000000000000000000000000000000000600052604160045260246000fd5b6000601f19601f8301169050919050565b6109b98161089b565b81146109c457600080fd5b5056fea2646970667358221220b9f94948f1a44ed2958d08a72581f60068cd63fe601c20efb6bacfaba063482e64736f6c63430008000033",
  "immutableReferences": {},
  "source": "// SPDX-License-Identifier: UNLICENSED\npragma solidity >=0.8.0;\n\ncontract FileManager {\n    // Structure of each File\n    struct File {\n        string fileName;\n        string fileType;\n        string cid;\n    }\n\n    // Mapping of each user's address with the array of files they are storing\n    mapping(address => File[]) files;\n\n    function addFile(string[] memory _fileInfo, string memory _cid) public {\n        files[msg.sender].push(File(_fileInfo[0], _fileInfo[1], _cid));\n    }\n\n    function getFiles(address _account) public view returns (File[] memory) {\n        return files[_account];\n    }\n}\n",
  "sourcePath": "/home/min/nucleodao/Projects/avalanche-ipfs/contracts/FileManager.sol",
  "compiler": {
    "name": "solc",
    "version": "0.8.0+commit.c7dfd78e.Emscripten.clang"
  },
  "schemaVersion": "3.4.4",
  "updatedAt": "2022-10-16T06:28:53.108Z",
  "networkType": "ethereum",
  "devdoc": {
    "kind": "dev",
    "methods": {},
    "version": 1
  },
  "userdoc": {
    "kind": "user",
    "methods": {},
    "version": 1
  }
}